:10038000020B07D0020D9470010F0002090000015A
:02039000080063
:08001E007F007E007D807C3F25
:100026008F138E128D118C10E4FFFE7DFA7C44AB8B
:1000360013AA12A911A81012008612018C8E0B8F1A
:100046000CC37440950CF50E749C950BF50DC3E42A
:10005600950CF50CE4950BF50BC3E4950EF50EE443
:05006600950DF50D22CF
:10006B00538E7F5389F0850E8AE50DF58CC28DD2A8
:04007B008CD2A92258
:03000B0002034AA3
:02034A00C0E011
:10034C00E508700E750801850C8AE50BF58CC2CD9D
:0E035C00800C750800850E8AE50DF58CD2CD5B
:03036A00D0E032AE
:10036D00538EBF53890F758BE0758DB1C28FD28EB1
:03037D00D2AB22DE
:03001B0002031FBE
:10031F00C0E0C0D075D000C006C007050AE50AAE20
:10032F00097002050914FFBE7508BF3005C2B37509
:0B033F000F03D007D006D0D0D0E03272
:0300830002000375
:0400030075C760322B
:03001300020007E1
:0100070032C6
:0E03930000007F0A7E1F7D93DDFEDEFCDFFA98
:0103A1002239
:1002A700E4F5B2F5B175CA10F5C9D2B2D2B3C2CC72
:1002B700C2CDD28AD2AA758F4012006B12036D127B
:1002C700001EE4F50FD2AF12039320B3FA050FE433
:1002D700F509F50AE50F640170087F667E667DA65D
:1002E700801AE50F640270087FCD7ECC7DCC800C30
:1002F700E50F6403700D7F337E337DF37C3F12007F
:1003070026801012001EC2B2D2CCD2B3758702006B
:0803170075C76020B3B180FB43
:10008600EC4D6011E8497017ED33EC3304600DE474
:10009600FCFFFEFD22E933E8330470F80201F81292
:1000A60001C358046009E4CC248150062850090293
:1000B60002022840030201FFC0E0EB4A7044B98007
:1000C60006D0E0FB0201EEEF4E701CBD8008EBFF90
:1000D600EAFEE9FD80EBE98DF0A4FEE5F002016F92
:1000E600E9CDF9EAFEEBFFEF89F0A4FCE5F0CE8955
:1000F600F0A42EFFE435F0CD89F0A42DFEE435F012
:100106008067EF4E7005BD80D780C3EF8BF0A4AC3F
:10011600F0EE8BF0A42CFCE435F0F8EF8AF0A42C7A
:10012600E5F038FCE433CB8DF0A42CFCE5F03BF88D
:10013600EE8AF0A42CFCE5F038F8E433CF89F0A47D
:100146002CFCE5F038CF3400CE89F0A42FFFE5F083
:100156003EFEE433C98DF0A42EFEE5F039CD8AF0DB
:10016600A42FFFE5F03EFEE43DFD33D0E0FB500753
:100176000BBB000F020202EC2CFCEF33FFEE33FE4A
:06018600ED33FD0201DA79
:10018C00EDD2E7CD33EC3392D524814006E4FFFE6B
:10019C00FDFC22FCE4CFCECDCC24E0501174FF80CA
:1001AC00EDC3CC13CCCD13CDCE13CECF13CF047067
:0701BC00F030D5DE02020D58
:1001C300E9D2E7C933E833F892D5EDD2E7CD33EC82
:0701D30033FC5002B2D522FB
:1001DA00EC30E7100FBF000C0EBE00080DBD000486
:1001EA000BEB6014A2D5EB13FCED92E7FD2274FF32
:1001FA00FCFDFEFF22E480F8A2D574FF13FC7D808B
:03020A00E480EF9E
:0300000002021BDE
:0C021B00787FE4F6D8FD758113020262C2
:0E020D00C3E49FFFE49EFEE49DFDE49CFC2202
:100227000202A7E493A3F8E493A34003F68001F244
:1002370008DFF48029E493A3F85407240CC8C333D8
:10024700C4540F4420C8834004F456800146F6DFA7
:10025700E4800B0102040810204080900380E47EB4
:10026700019360BCA3FF543F30E509541FFEE4939C
:10027700A360010ECF54C025E060A840B8E493A363
:10028700FAE493A3F8E493A3C8C582C8CAC583CA8E
:10029700F0A3C8C582C8CAC583CADFE9DEE780BE46
:01039200006A
:00000001FF
